:02000000482C8A
:100008008A0183010B1D712821006008610403190E
:1000180020280130E0020030E13B60086104031D44
:100028001F28043022008C0620082100E00022004E
:1000380021082100E1002828220020082100E000F2
:10004800220021082100E1002200240825040319C8
:100058003B280130A4020030A53B24082504031DD9
:100068003B280430A4000030A5000130B400320859
:10007800330403194D280130B2020030B33B320873
:100088003304031D4D285030B200C330B300013093
:10009800B1002608270403195F280130A6020030A2
:1000A800A73B26082704031D5F28D030A600073089
:1000B800A7000130B00021006B086C040319682800
:1000C8000130EB020030EC3B660867040319702826
:0C00D8000130E6020030E73B0B1109008C
:0C00E4003A30FD00FD0B742800000800FD
:1000F0002000FB01FA01F9018030F800F10CF00C4E
:10010000031C8B287408F90775080318750FFA0784
:100110000318FB0A0310F01F93287408FA077508E8
:100120000318750FFB07FB0CFA0CF90CF80C031CF9
:100130007E287B08F3007A08F2007908F10078083D
:04014000F0000800C3
:10014400F101F201F301F4012200C736C60C4B0899
:100154007402031DB7284A087302031DB72849080F
:100164007202031DB728480871020318DA28F50142
:10017400F60147087602031DC128460875020318D4
:10018400D0280230FC000830FD00FD0BC728FC0B12
:10019400C7280000F50A0319F60ABB284608F10728
:1001A4004708F23D0030F33DF43D04308C06A928A5
:0201B400080041
:1001B600833021009D0522004608F000F035F03519
:1001C600700821009D0472209D149D1CEB28E828D0
:1001D6001C08F100F0011B08F0040030F1040800CF
:1001E600DB302200A8000030A9004630AA0001300A
:0E01F600AB00F03021009E009D011D1408009A
:10020400220041084502031D112940084402031D30
:1002140011293F084302031D11293E084202031815
:1002240024293E08F0003F08F1004008F20041088C
:10023400F3004208F0024308F13B4408F23B45084E
:10024400F33B34294208F0004308F1004408F2006B
:100254004508F3003E08F0023F08F13B4008F23B3A
:060264004108F33B080015
:0E026A00F32022003E08C600DB201D10080015
:1002780022003E0823009100920122003F0823003B
:1002880093001513951315150B08F0008B135530B3
:100298009600AA3096009514F01B54298B13552903
:0C02A8008B171511951C592956290800C8
:1002B40020001B08013EF000F1010030F13D220056
:1002C4003E08F400F50178200630F2007008F400CE
:1002D4007108F500720803197329F536F40CFF3E12
:1002E4006D290430F1007408F000710803197D29A8
:1002F400F035FF3E782930307005F3007408F000C3
:100304007508F100F136F00CF136F00C7008250098
:0C03140098000F309A0573089A04080046
:100320000A302200C6000030C7002C30C80001305F
:10033000C900CA01CB01A2200930FB001E30FC001D
:10034000E430FD00FD0BA229FC0BA229FB0BA22926
:1003500000001430C6000030C7002C30C800013047
:10036000C900CA01CB01A2200930FB001E30FC00ED
:10037000E430FD00FD0BBA29FC0BBA29FB0BBA29AE
:1003800000000A30C6000030C7002C30C800013021
:0A039000C900CA01CB01A220080039
:10039A002000F8010830FC00700DF80D7408F8020E
:1003AA000318D929F8070310F00DFC0BD12908000E
:1003BA002200BD010130A2020030A33B220823041F
:1003CA00031D722ADC30A2000530A3000330FC00B2
:1003DA001230FD00FD0BEF29FC0BEF29000006305F
:1003EA00BE00352170082200AE007108AF002D084A
:1003FA000319532A2E08BE002F08BF00C001C101ED
:10040A003E30C2000330C300C401C50102210030DE
:10041A007302031D1A2A00307202031D1A2A0030C1
:10042A007102031D1A2A0A30700203181E2AAD012E
:10043A00522A03302F02031D242A3E302E020318AB
:10044A002D2A2C08003C03182C2AFF30BD00332A21
:10045A001F302C020318332A0130BD002D0803195E
:10046A00422A20002008003A0319422A20082200C2
:10047A003D060319422AAD01BD0122003D082C07A1
:10048A00F0007008AC00700899003D082000A00038
:10049A0022002D080319522AAD03722ABE012C0824
:1004AA00BF003C2122002E08F0002F08F100F1368F
:1004BA00F00CF136F00C7008AE007108AF00323063
:1004CA00F0020030F13B7008AE007108AF0070080E
:0C04DA00BE005A212100E801902108001A
:1004E6002200B9018B1320001810970196011110F4
:1004F60022008E120230FC000830FD00FD0B812A1E
:10050600FC0B812A000020001814181422008E16F5
:100516008B1721006808031DD22A0230E60000303E
:10052600E7002200131B9D2A2100660867040319B1
:100536009D2A942A210066086704031DB02A053007
:10054600E4000030E5000830E9000030EA00083039
:100556002200A0000030A100FE2B02302100E600A0
:100566000030E7002200131FBE2A21006608670438
:100576000319BE2AB52A210066086704031DD12A7D
:100586000530E4000030E5000830E9000030EA00FC
:1005960008302200A0000030A100FE2BD42ADD2165
:1005A600FE2B20001708F100F0011608F0040030B9
:1005B600F1047008A1077108A23D0030A33DA43DD7
:1005C600970196011110181001302100ED0200303C
:1005D600EE3B6D086E04031DFE2B6B086C04031DB9
:1005E600CD2BDA01DB01DC01DD012200B90121009E
:1005F6005908220039020318202B0930F300203055
:10060600F4003908F000F101F035F10DF035F10D87
:100616007008730784007108743D85000008210086
:10062600DA0701310008DB3D01310008DC3D01310C
:100636000008DD3D2200B90AFA2A21005E08F00012
:10064600700803192C2BDD36DC0CDB0CDA0CFF3EB4
:10065600242B20008C193D2B21006208F000630832
:10066600F100F035F10D7008DA077108DB3D003056
:10067600DC3DDD3D2000240821005D02031D532BD7
:100686002000230821005C02031D532B20002208B2
:1006960021005B02031D532B2000210821005A0272
:1006A60003186F2B20002108A5002208A6002308A6
:1006B600A7002408A80021005A082000A50221004E
:1006C6005B082000A63B21005C082000A73B210018
:1006D6005D082000A83B742B2000A501A601A701F8
:1006E600A8012808003C031D822B2708003C031D97
:1006F600822B2608003C031D822B2508403C03184C
:100706008C2B4030A500A601A701A80122008E155A
:100716008E2B22008E11210064086504031DAE2B6A
:100726000530F20020002508F0002608F1007208C6
:100736000319A12BF035F10DFF3E9B2B7008003CF1
:100746002200A0007108031C013E083CA100A00A7B
:100756000319A10ABA2B01302100E4020030E53B5F
:1007660069082200A00021006A082200A1002100D9
:10077600610822002102031DC42B2100600822000B
:1007860020020318CD2B20082100E00022002108BA
:100796002100E10020008C1DF42B21005908F400F3
:1007A6005F08F000CD217808F0000930F400203011
:1007B600F5007008F100F201F135F20DF135F20D98
:1007C6007108740786007208753D8700210881004C
:1007D600220841318100230841318100240841313A
:1007E6008100A101A201A301A4012100DF0A620880
:0807F600ED006308EE000800AD
:1007FE008B1332302200C6000030C700E830C8002C
:10080E000330C900CA01CB01A2201430C60000304B
:10081E00C700E830C8000330C900CA01CB01A220CE
:10082E000A30C6000030C700E830C8000330C900E7
:10083E00CA01CB01A220200095010B118B170800D5
:10084E0021008E1120001C150C3025009A04080082
:0A085E00250098011A129A120800F2
:1008680022003908230091009201951315131514DD
:060878001308F000080067
:10087E0012001E00F003031D3F2CF103031D3F2C3D
:02088E00080060
:100890002000A001A101A201A301A401A501A601BC
:1008A000A701A80101302200B7000030B8000530D0
:1008B0002100E2000030E3000530ED000030EE00E2
:1008C00001302200B000B4010030A0000830A100C7
:1008D00000302100E0000830E10050302200B2007A
:1008E000C330B300B10188302100EB001330EC00BD
:1008F000D0302200A6000730A7000430A40000304A
:10090000A5001030AC00DC30A2000530A3001F3081
:10091000AD0001302100E800EF01DF012030D900F7
:100920000530DE00E401E501F03099000C102000F4
:100930000C1424000C1021008C1420008C142100B5
:100940000C1120000C1521008C1120008C152100A9
:100950000C1620000C1621008C1220008C16210091
:100960000E1420000E1421008E1420008E1421007D
:100970000E1520000E1521008E1120008E1521006D
:100980000E1220000E1621008E1220008E1623005B
:100990000C148C140C160E148E140E1520009917BE
:1009A0001917991219129914191418129812181764
:1009B0009813981118149701960111102200981796
:1009C00018139816181198111810B90134247008CA
:1009D0002200AC007008203C0318F02C1030AC0052
:1009E0002C08990021001D149E171E129E161E171A
:1009F0001E111E109E10220013129316131593172A
:100A00009314131414149410141294122100151436
:100A100095141511951195128B168B1722001E1423
:100A200020001C109C101F309B002F247F302200C0
:100A3000BE005A212724FF23220034080319232D46
:100A400073222200B40131080319392DB10101309C
:100A5000BE00352102307102031D302D00307002BE
:100A60000318392DFA30E400E5010430E4000030C9
:100A7000E500220030080319D62D0330BE003521D1
:100A80007008F2007108F300F336F20CF336F20C42
:100A9000F336F20CF336F20C72082200B50073083C
:100AA000B60000307302031D572D04307202031884
:100AB0005D2D0430B5000030B6003608003C031D43
:100AC000632D35083F3C0318692D3F30B5000030D9
:100AD000B6003708BE003808BF00C001C1013508A4
:100AE000C2003608C300C401C50102217308003CDE
:100AF000031D842D7208003C031D842D7108003CE9
:100B0000031D842D7008013C03188D2D350821002C
:100B1000E200220036082100E30022003508B70079
:100B20003608B800B00100303602031D992D0F3091
:100B300035020318A62D20302100D9000530DE0033
:100B40000A3022002E02BE005A21D62D003022008B
:100B50003602031DAD2D1E3035020318BA2D10309C
:100B60002100D9000430DE00053022002E02BE0034
:100B70005A21D62D003022003602031DC12D283007
:100B800035020318CD2D08302100D9000330DE00D6
:100B900022002E08BE005A21D62D04302100D90093
:100BA0000230DE0022002E08BE005A211C2DD72D57
:020000040001F9
:04000E00A43F1316E2
:00000001FF
