:020000001E2CB4
:100008008A0183010B1D6928210020082104031996
:100018001E280130A0020030A13B20082104031D46
:100028001D28043022008C0621002F08A00030086B
:10003800A10022282F08A0003008A10034083504A8
:10004800031934280130B4020030B53B34083504B4
:10005800031D34280430B4000030B5000130C4005A
:1000680042084304031946280130C2020030C33B4A
:1000780042084304031D46285030C200C330C30061
:100088000130C10036083704031958280130B60278
:100098000030B73B36083704031D5828D030B60067
:1000A8000730B7000130C0002B082C040319602862
:1000B8000130AB020030AC3B26082704031968283E
:0C00C8000130A6020030A73B0B1109001C
:0C00D4003A30FD00FD0B6C280000080015
:1000E0002000FB01FA01F9018030F800F10CF00C5E
:1000F000031C83287408F90775080318750FFA079D
:100100000318FB0A0310F01F8B287408FA07750800
:100110000318750FFB07FB0CFA0CF90CF80C031C09
:1001200076287B08F3007A08F2007908F100780855
:04013000F0000800D3
:10013400F101F201F301F4012100D936D80C2100B8
:100144005D087402031DB0285C087302031DB02807
:100154005B087202031DB0285A0871020318D428E0
:10016400F501F60159087602031DBA2858087502EC
:100174000318C9280230FC000830FD00FD0BC0281C
:10018400FC0BC0280000F50A0319F60AB428580825
:10019400F1075908F23D0030F33DF43D04302200EC
:0601A4008C06A1280800F2
:1001AA00833021009D055808F000F035F0357008BD
:1001BA009D046A209D149D1CE328E0281C08F10078
:0C01CA00F0011B08F0040030F1040800F4
:1001D600D5302100B8000030B900D830BA00003060
:0C01E600BB00F0309E009D011D140800BD
:1001F200210053085702031D082952085602031D05
:10020200082951085502031D0829500854020318F1
:100212001B295008F0005108F1005208F20053085F
:10022200F3005408F0025508F13B5608F23B570818
:10023200F33B2B295408F0005508F1005608F20050
:100242005708F3005008F0025108F13B5208F23B04
:060252005308F33B080015
:0C025800EB205008D800D5201D10080035
:10026400210050082300910092012100510823002D
:1002740093001513951315150B08F0008B135530C7
:100284009600AA3096009514F01B4A298B134B292B
:0C0294008B171511951C4F294C290800F0
:1002A00020001B08013EF000F1010030F13D21006B
:1002B0005008F400F50170200630F2007008F400D8
:1002C0007108F500720803196929F536F40CFF3E30
:1002D00063290430F1007408F000710803197329D0
:1002E000F035FF3E6E2930307005F3007408F000E1
:1002F0007508F100F136F00CF136F00C70082500AD
:0C03000098000F309A0573089A0408005A
:10030C000A302100D8000030D9002C30DA0001303E
:10031C00DB00DC01DD019A200930FB001E30FC0003
:10032C00E430FD00FD0B9829FC0B9829FB0B982958
:10033C00000014302100D8000030D9002C30DA0035
:10034C000130DB00DC01DD019A200930FB001E309E
:10035C00FC00E430FD00FD0BB129FC0BB129FB0BBB
:10036C00B12900000A302100D8000030D9002C300F
:0E037C00DA000130DB00DC01DD019A20080010
:10038A002000F8010830FC00700DF80D7408F8021E
:10039A000318D129F8070310F00DFC0BC92908002E
:1003AA002100CF010130B1020030B23B31083204E2
:1003BA00031D6E2ADC30B1000530B2000330FC00A8
:1003CA001230FD00FD0BE729FC0BE729000006307F
:1003DA00D0002C217008BE007108BF003D08031927
:1003EA004C2A3E08D0003F08D100D201D3013E304A
:1003FA00D4000330D500D601D701F92000307302AA
:10040A00031D112A00307202031D112A00307102E5
:10041A00031D112A0A3070020318152ABD014B2A3E
:10042A0003303F02031D1B2A3E303E020318242AD2
:10043A003C08003C0318232AFF30CF002A2A1F3029
:10044A003C0203182A2A0130CF003D080319392A31
:10045A0020002008003A0319392A200821004F06F3
:10046A000319392ABD01CF0121004F083C07F000CA
:10047A007008BC0070082200990021004F08200073
:10048A00A00021003D0803194B2ABD036E2AD001A2
:10049A003C08D100322121003E08F0003F08F1005B
:1004AA00F136F00CF136F00C7008BE007108BF008E
:1004BA006430F0020030F13B7008BE007108BF00E2
:1004CA007008D00050212100A801862101302100A6
:0404DA00C000080056
:1004DE002100CB018B1320001810970196011110EB
:1004EE0022008E120230FC000830FD00FD0B7D2A2A
:1004FE00FC0B7D2A000020001814181422008E1602
:10050E008B1721002808031DCB2A0230A6000030CD
:10051E00A7002200131B992A21002608270403197D
:10052E00992A902A210026082704031DAB2A05309C
:10053E00A4000030A5000830A9000030AA00083041
:10054E00AF000030B000D22B0230A6000030A70062
:10055E002200131FB82A2100260827040319B82ADF
:10056E00AF2A210026082704031DCA2A0530A4003D
:10057E000030A5000830A9000030AA000830AF00F6
:10058E000030B000D22BCD2AD521D22B2000170857
:10059E00F100F0011608F0040030F1047008A10714
:1005AE007108A23D0030A33DA43D970196011110A4
:1005BE00181001302100AD020030AE3B2D082E0484
:1005CE00031DD22B2B082C04031DA62B2000EA01A1
:1005DE00EB01EC01ED012100CB01200069082100A7
:1005EE004B020318162B4B08F000F101F035F10DFC
:1005FE00F035F10D2930700784000030713D850013
:10060E0000082000EA0701310008EB3D0131000827
:10061E00EC3D01310008ED3D2100CB0AF42A20000B
:10062E006E08F00070080319222BED36EC0CEB0C63
:10063E00EA0CFF3E1A2B8C19332B21002208F000F6
:10064E002308F100F035F10D70082000EA0771085B
:10065E00EB3D0030EC3DED3D24086D02031D412BBA
:10066E0023086C02031D412B22086B02031D412B34
:10067E0021086A020318542B2108A5002208A6009F
:10068E002308A7002408A8006A08A5026B08A63B49
:10069E006C08A73B6D08A83B582BA501A601A70126
:1006AE00A8012808003C031D662B2708003C031DEB
:1006BE00662B2608003C031D662B2508403C0318BC
:1006CE00702B4030A500A601A701A80122008E15AF
:1006DE00722B22008E11210024082504031D922B5B
:1006EE000530F20020002508F0002608F1007208FF
:1006FE000319852BF035F10DFF3E7F2B7008003C62
:10070E002100AF007108031C013E083CB000AF0A87
:10071E000319B00A9A2B0130A4020030A53B290818
:10072E00AF002A08B00021083002031DA02B2008BC
:10073E002F020318A62B2F08A0003008A1002000BE
:10074E008C1DC82B6908F4006F08F000C5217808CD
:10075E00F0007008F100F201F135F20DF135F20DF5
:10076E002930710786000030723D87002108810014
:10077E002208413181002308413181002408413192
:10078E008100A101A201A301A401EF0A2100220808
:08079E00AD002308AE000800C5
:1007A6008B1332302100D8000030D900E830DA004F
:1007B6000330DB00DC01DD019A2014302100D80073
:1007C6000030D900E830DA000330DB00DC01DD015F
:1007D6009A200A302100D8000030D900E830DA002B
:1007E6000330DB00DC01DD019A20200095010B11AE
:0407F6008B17080055
:1007FA0021008E1120001C150C3025009A040800D7
:0A080A00250098011A129A12080046
:1008140021004B0823009100920195131513151420
:060824001308F0000800BB
:10082A0012001E00F003031D152CF103031D152CE5
:02083A000800B4
:10083C002000A001A101A201A301A401A501A60110
:10084C00A701A80101302100C7000030C800C90170
:10085C00CA011030A2000030A3001030AD000030EF
:10086C00AE000130C000C4010030AF000830B00051
:10087C000030A0000830A1005030C200C330C300CB
:10088C00C1018830AB001330AC00D030B60007305B
:10089C00B7000430B4000030B5001030BC00DC30C0
:1008AC00B1000530B2001F30BD000130A800B3010B
:1008BC002000EF011030E9000430EE002100A4010B
:1008CC00A501F03099000C1020000C1424000C1021
:1008DC0021008C1420008C1421000C1120000C150C
:1008EC0021008C1120008C1521000C1620000C16F8
:1008FC0021008C1220008C1621000E1420000E14E6
:10090C0021008E1420008E1421000E1520000E15CF
:10091C0021008E1120008E1521000E1220000E16C3
:10092C0021008E1220008E1623000C148C140C1631
:10093C000E148E140E1520009917191799121912EE
:10094C00991419141812981218179813981118143E
:10095C009701960111102200981718139816181168
:10096C00981118102100CB010A2470082100BC003A
:10097C007008203C0318C42C1030BC003C0822002A
:10098C00990021001D149E171E129E161E171E1173
:10099C001E109E1022001312931613159317931406
:1009AC001314141494101412941221001514951489
:1009BC001511951195128B168B1722001E14200001
:1009CC001C109C101F309B0005247F302100D00090
:1009DC005021FD23D323210044080319F72C6F2247
:1009EC00C401410803190D2DC1010130D0002C2187
:1009FC0002307102031D042D0030700203180D2DFE
:100A0C00FA30A400A5010430A4000030A500400871
:100A1C000319742D0330D0002C217008F2007108DA
:100A2C00F300F336F20CF336F20CF336F20C7208D8
:100A3C00C5007308C60000307302031D272D043057
:100A4C00720203182D2D0430C5000030C600460874
:100A5C00003C031D332D45087F3C0318392D7F3096
:100A6C00C5000030C6004708D0004808D100D201AC
:100A7C00D3014508D4004608D500D601D701F9208A
:100A8C007308003C031D542D7208003C031D542DAB
:100A9C007108003C031D542D7008013C0318732D84
:100AAC0045083E07F10046083F3DF2007108C900B9
:100ABC007208CA007208003C031D662D7108FF3CC9
:100ACC0003186B2DFF30C900CA014908D000502112
:100ADC0021004508C7004608C800C001F12C752D3F
:020000040001F9
:04000E00A43F1316E2
:00000001FF
